:100000003BC09DC154C053C052C051C050C04FC02E
:100010004EC04DC04CC04BC04AC049C048C047C08C
:1000200046C045C044C00902120001010080190900
:10003000040000000000000012011001FF00000891
:10004000C016DC050401010200010E035500530037
:1000500042006100730070001C0377007700770096
:100060002E00660069007300630068006C002E00BB
:10007000640065000403090411241FBECFE5D4E029
:10008000DEBFCDBF10E0A0E6B0E0E4EBF1E102C0DE
:1000900005900D92A236B107D9F710E0A2E6B0E0C4
:1000A00001C01D92AA3AB107E1F771D881C8A8CF63
:1000B000CF93DF9360918800635067FD14C0209157
:1000C00085008CE090E0821B9109EC01C457DF4F62
:1000D000809184008D3209F455C08091620087FDC3
:1000E00097C0109288008091610084FF3EC06091AB
:1000F00060006F3FD1F1693008F46CC068506093C4
:1001000060009091780088E889278093780068E003
:100110008091620087FD1CC020918600309187008D
:1001200086FF6DC0A9E7B0E0F901962F84918D9309
:1001300031969150D9F78FEF860F90E00196280FF6
:10014000391F3093870020938600C4E0C60F4DC04E
:1001500089E790E0CAD6682F893008F49FC08FEFF6
:1001600080936000CEE1C093610094E186B3837018
:1001700031F49150D9F71092890010928300DF91E9
:10018000CF910895683009F0ACCF83EC809378006C
:100190008AE580936100109262008881807609F080
:1001A00041C08A81109281009981911146C01092BC
:1001B000820021E830E082E03093870020938600BF
:1001C0009F81911104C09E81981708F4892F809314
:1001D000600087CF109260009091780088E88927AE
:1001E00080937800611194CFC4E089E790E0A3D0B8
:1001F000CC3009F4B8CF8FEF80936000B4CFD90131
:10020000E9E7F0E0962F8D9181939150E1F793CF3C
:10021000CE01EBD68F3F01F1882309F462CF109213
:1002200060005FCFCE01A2D48F3F51F6988197FD39
:100230001DC090E890936200CACF953089F0963047
:1002400009F19830D9F0993099F081E09A3009F0AD
:1002500080E021E830E0B0CF8EE18093610041CFB3
:100260008093890021E830E080E0A6CF8E81E1CF45
:1002700080938B0021E830E080E09ECF2BE830E0D7
:1002800081E09ACF9B819130F1F09230A1F09330D0
:1002900041F080E090E49093620092CFC4E0C80FF8
:1002A000A4CF811118C084E790E0909387008093D9
:1002B000860084E0EFCF86E290E090938700809301
:1002C000860082E1E7CF88E390E0909387008093F7
:1002D000860082E1DFCF813051F08230D1F68AE4AE
:1002E00090E090938700809386008EE0D3CF88E5DE
:1002F00090E090938700809386008CE1CBCF85B708
:10030000836085BF8BB780648BBF0895A82FB92FFA
:1003100080E090E041E050EA609530E009C02D9126
:1003200082279795879510F084279527305EC8F32C
:100330006F5FA8F30895EADF8D939D930895CF939F
:10034000CFB7CF93C395B09BE9F7B09B09C0B09BE3
:1003500007C0B09B05C0B09B03C0B09B01C0A1C04B
:10036000DF93C0918500DD27C457DF4FB09B02C0EB
:10037000DF91EBCF2F930F931F9306B32FEF00FB6B
:1003800020F94F933F9316B34FEF012700FB21F95C
:100390003BE031C04E7F012F16B3216028C0102FE3
:1003A0004D7F2260000006B329C04B7F2460012FDF
:1003B000000016B32BC016B3477F28602AC04F7EBB
:1003C00006B320612CC04F7D16B320622FC04F7B37
:1003D00006B3206432C0422706B349934FEF0000B2
:1003E000102710FB20F916B31370C9F1297F91F281
:1003F000012700FB21F906B3237F89F2315058F120
:10040000102710FB22F916B3277E79F2012700FB93
:1004100023F92F7C81F206B3102710FB24F92F79E2
:1004200071F200C016B3012700FB25F92F7359F2B2
:1004300000C006B3102710FB26F9223040F200C09E
:1004400016B3012700FB27F9243028F64F772068E0
:1004500016B30000F9CF10E41ABF002717C03B50B5
:100460003195C31BD04010E41ABF0881033CE9F06A
:100470000B34D9F0209183001981110F1213EDCFA5
:10048000093641F10D3211F0013E39F700938A002F
:100490003F914F911F910F912F91DF91CAB7C6FDE8
:1004A00051CFCF91CFBFCF91189520918A002223B1
:1004B00079F310918800112311F5343012F1309343
:1004C000880020938400109185003BE0311B30931D
:1004D000850017C00091880001308CF40AE5309146
:1004E000610034FD10C000936100C8E7D0E00FC088
:1004F0002795A8F45150A9F4220F0000F9CF4AE53E
:1005000003C042ED01C0432FC4E1D0E032E017B395
:100510001360C09A17BB08B320E413E05F93012770
:1005200056E008BB279520F4515021F4220FF9CF53
:10053000012756E000003B5A08BBD0F2279528F46B
:10054000515029F4220F0000F9CF012756E02795DA
:1005500008BB20F4515021F4220FF9CF012756E0B7
:100560002991332308BB21F60C7F10918900110FCC
:10057000C651D04008BB11F01093830010E41ABF9D
:10058000016017B31C7F402F4C7F5F9100C000C0FB
:1005900008BB17BB48BB7CCF582F48E080E057FD15
:1005A00018C0C398550F880FB4998F5FC59A32B79A
:1005B0002091A70092B7931B9217E0F3C59832B72A
:1005C0002091A70092B7931B9217E0F3415039F79F
:1005D0000895C39AE7CF8FB9779BFECF8FB1089567
:1005E000DC01CB0121E1B695A795979587952A95D2
:1005F000D1F72091A6002817D9F08093A600E091AA
:10060000A300F091A4008DE40995E091A300F0917E
:10061000A40080E00995E091A300F091A4008091EE
:10062000A6000995E091A300F091A40080E0099450
:1006300008958091A5008DB98091A2008EB908958A
:100640008823A1F08830D0F52CEC32E03093A40060
:100650002093A3008430F1F008F18630C1F030F12E
:100660008730A1F483E08093A70008958BEE92E099
:100670009093A4008093A30081E08093A70082E57B
:100680008093A50081E08093A200089580EC809380
:10069000A700089588E18093A7000895823051F063
:1006A0008330A1F780E38093A70008958CE08093C6
:1006B000A700089580E68093A70008952BEE32E00E
:1006C0003093A4002093A3001092A20091E0909395
:1006D000A700893059F070F08B3021F08C3079F61A
:1006E0009093A20081E58093A500089582E5809310
:1006F000A5000895883019F683E58093A500089534
:1007000022B79091A70082B7821B8917E0F3089562
:1007100087B38C6287BBC298C59822B79091A70017
:1007200082B7821B8917E0F3C29A22B79091A70083
:1007300082B7821B8917E0F3C2988091A300909141
:10074000A4008B5E924019F01092A600089580914B
:10075000A5008DB98091A2008EB91092A6000895CF
:1007600087B3837D87BB88B3837D88BB1DB808951D
:10077000CF93DF93C0E2E091A300F091A4008CEA54
:100780000995E091A300F091A40083E50995E0911B
:10079000A300F091A40080E00995D82FE091A30078
:1007A000F091A40080E00995D33561F11DB822B71E
:1007B0009091A70082B7821B8917E0F3C29A22B7F3
:1007C0009091A70082B7821B8917E0F3C29822B7E5
:1007D0009091A70082B7821B8917E0F38091A30054
:1007E0009091A4008B5E924031F0C15021F681E0DF
:1007F000DF91CF9108958091A5008DB98091A200DD
:100800008EB9F3CF80E0DF91CF910895CF92DF9240
:10081000EF92FF926B017C01E3DE8C2D8170880FDB
:10082000880F880FE091A300F091A40080620995E1
:10083000D701C60129E0B695A795979587952A9582
:10084000D1F7E091A300F091A4000995D701C6016A
:10085000B695A79597958795E091A300F091A40090
:100860000995E091A300F091A40080E0FF90EF9043
:10087000DF90CF900994CF92DF92EF92FF920F9387
:100880001F93CF93DF931F92CDB7DEB76B017C012F
:10089000142F2983A5DE9C2D9170892F880F880F36
:1008A000880FE091A300F091A40080640995D7011E
:1008B000C60129E0B695A795979587952A95D1F712
:1008C000E091A300F091A4000995D701C601B69567
:1008D000A79597958795E091A300F091A4000995BD
:1008E000E091A300F091A400812F09952981222392
:1008F000A9F01F3789F002B71EE1C701B60186DFF4
:100900008F3761F482B7801B8D3310F002B711501E
:100910001111F3CF81E003C08FE0B3D080E00F90DE
:10092000DF91CF911F910F91FF90EF90DF90CF90CB
:100930000895CF92DF92EF92FF920F931F93CF9380
:10094000DF931F92CDB7DEB76B017C01498348DE90
:10095000E091A300F091A4008CE40995D701C601B1
:1009600029E0B695A795979587952A95D1F7E091B7
:10097000A300F091A4000995D701C601B695A795EB
:1009800097958795E091A300F091A4000995E091D7
:10099000A300F091A40080E0099549814F3FE1F068
:1009A00002B71EE1C701B60131DF8F3F99F482B76C
:1009B000801B8D3310F002B711501111F3CF81E07D
:1009C0000F90DF91CF911F910F91FF90EF90DF90EB
:1009D000CF90089580E0F4CF8FE053D080E0F0CF47
:1009E0001F93CF93DF931F92CDB7DEB7182FE091FF
:1009F000A300F091A40080EA99830995E091A300F7
:100A0000F091A4009981892F0995E091A300F091BC
:100A1000A400812F0995E091A300F091A40080E04B
:100A20000F90DF91CF911F9109941F93CF93DF9384
:100A300000D0CDB7DEB7182FE091A300F091A4004D
:100A400080EC6A8399830995E091A300F091A4005A
:100A50009981892F0995E091A300F091A400812F3D
:100A60000995E091A300F091A4006A81862F099571
:100A70008EE107D080E00F900F90DF91CF911F9112
:100A80000895882349F030E022B792B7921B9C3337
:100A9000E0F33F5F3813F8CF0895BD9ABB98C39A2F
:100AA00050E217D05A95E9F70895AC0188E605D0D1
:100AB000842F03D089E601D0852F0FD028E030E0C5
:100AC000382780FB869506D02A95D1F730FB02D0D7
:100AD00000D06894BB98C39A16F0C398BB9AE09173
:100AE000A800F091A9003197F0F7C59AE6B3E3FBAF
:100AF000E091A800F091A9003197F0F7C59808950A
:100B000020ECE7DF46F42A95E1F780E02AE1E5DF13
:100B10002A95E9F7DECF28E030E0DBDF869587F91C
:100B200038272A95D1F7D5DF27F9322772F3D1DF9D
:100B3000D0CFDB01742FB9DF84E2BFDFE1DF8D931B
:100B40007A95D1F70895DB01742FAFDF83EFB5DF1E
:100B50008DE1B3DF84E6B1DF8D91AFDF82E7ADDFFA
:100B6000CFDF8078D9F77A9589F70895CF93DF930F
:100B7000EC019981913089F1923009F4B0C0933041
:100B800009F463C09430A1F1973009F483C0953023
:100B900009F40EC1963009F4A6C0983009F4DDC0FE
:100BA000993009F40AC19A3009F439C19B3009F42B
:100BB00069C19C3009F47BC19D3009F48DC19E3020
:100BC00009F48FC19F3009F409C1903109F42EC195
:100BD0009F3709F44CC180E02FC09A9B58C0809188
:100BE0006E002EDD10926D00A99892DD80E024C089
:100BF00080916D00811112C08B8190E0982F882721
:100C00002A81822BAA2797FDA095BA2F809369008D
:100C100090936A00A0936B00B0936C008F8190E07A
:100C2000982F88272E81822B9093680080936700ED
:100C300082E080936F008FEF20E730E030938700F1
:100C400020938600DF91CF910895E091A300F09169
:100C5000A4008A81099580937000E091A300F0912F
:100C6000A4008B81099580937100E091A300F0911D
:100C7000A4008C81099580937200E091A300F0910B
:100C8000A4008D8109958093730084E0D5CF85E021
:100C9000D7DCA8CF80916D00811112C08B8190E0CC
:100CA000982F88272A81822BAA2797FDA095BA2FF3
:100CB0008093690090936A00A0936B00B0936C00DE
:100CC0008F8190E0982F88272E81822B9093680047
:100CD0008093670083E080936F008FEFADCF40DD9E
:100CE000A99A80E0A9CF80916D00811112C08B81FB
:100CF00090E0982F88272A81822BAA2797FDA0951C
:100D0000BA2F8093690090936A00A0936B00B09310
:100D10006C003C812D81822F8F7080936400822F24
:100D2000807F40E1849FC0011124830F911D909327
:100D300066008093650020FD809363008F8190E0C2
:100D4000982F88272E81822B9093680080936700CC
:100D500081E080936F008FEF6FCF80916D008111E4
:100D600012C08B8190E0982F88272A81822BAA2796
:100D700097FDA095BA2F8093690090936A00A09385
:100D80006B00B0936C001092660010926500109298
:100D900064008F8190E0982F88272E81822B90937A
:100DA00068008093670084E080936F008FEF44CFEA
:100DB000DFDC8093700081E03FCF81E080936D00A5
:100DC0008A819B81AC81BD818093690090936A0088
:100DD000A0936B00B0936C0080E02ECF8B8190E0ED
:100DE000982F88272A81822BAA2797FDA095BA2FB2
:100DF0008093690090936A00A0936B00B0936C009D
:100E00008F8190E0982F88272E81822B9093680005
:100E10008093670085E080936F008FEF0DCF8A810C
:100E200080936E001092700081E006CF8B8190E07D
:100E3000982F88272A81822BAA2797FDA095BA2F61
:100E40008093690090936A00A0936B00B0936C004C
:100E50008F8190E0982F88272E81822B90936800B5
:100E60008093670086E080936F008FEFE5CE81E08E
:100E700080937000109271001092720010927300B3
:100E800084E0DACE8B8190E0982F88272A81822B0C
:100E90009093A9008093A800C29ABA9A83E0F1DDEA
:100EA000C298A99880E1EDDDF8DD80E0C5CE80EC48
:100EB00004DE80E002DE8AE0E4DDC29A85E0E1DD66
:100EC000C29885E0DEDD87B3837D87BB88B3837DF1
:100ED00088BBA99A80E0B0CE13DE8093700081E0D9
:100EE000ABCE8A81EADD80E0A7CEFF920F931F93FD
:100EF000CF93DF93582F792FF62E20916F003EEF7E
:100F0000320F323050F0253009F452C08FEFDF91AC
:100F1000CF911F910F91FF900895662309F43FC070
:100F20008091690090916A00A0916B00B0916C0073
:100F3000052F172F3FEF360FE801C30FD11D1DC03E
:100F40004FDDF80180838091690090916A00A09143
:100F50006B00B0916C000196A11DB11D80936900DA
:100F600090936A00A0936B00B0936C000C171D0760
:100F700061F020916F000F5F1F4F223009F7BC0115
:100F8000CD0144DCF8018083DECFF7E0FF1538F4B3
:100F90008F2DDF91CF911F910F91FF9008951092A7
:100FA0006F008F2DDF91CF911F910F91FF900895CA
:100FB000462F682F8091690090916A00BADD809178
:100FC000690090916A00A0916B00B0916C008F0D48
:100FD000911DA11DB11D8093690090936A00A0939B
:100FE0006B00B0936C008F2D92CFFF920F931F93E5
:100FF000CF93DF93382F792F162F20916F00213058
:1010000061F0243051F0263009F494C08FEFDF9165
:10101000CF911F910F91FF900895112309F482C081
:101020008091690090916A00A0916B00B0916C0072
:10103000C32FD72F1150AE01410F511D8A01F12C42
:101040004DC02091650030916600232B09F04FC000
:1010500021E04881BC01CD010EDC20916700309178
:101060006800215031093093680020936700232BDA
:10107000E1F410926F008091640081FF35C080918F
:10108000630090E02091650030916600821793071D
:1010900059F16091690070916A0080916B009091A4
:1010A0006C00488146DCFF24F394809169009091A4
:1010B0006A00A0916B00B0916C000196A11DB11D5A
:1010C0008093690090936A00A0936B00B0936C00CA
:1010D000C017D10741F120916F002196213009F40A
:1010E000B0CF6881A2DCB9CFFF24F394DECF20E03B
:1010F0004881BC01CD01BFDB8091630081508093AA
:1011000063008111AACF6091690070916A0080919B
:101110006B0090916C0048810CDC8091650080939D
:1011200063009BCFF12C8F2DDF91CF911F910F91F9
:10113000FF900895462F682F8091690090916A0072
:1011400002DD8091690090916A00A0916B00B091DE
:101150006C00810F911DA11DB11D809369009093BA
:101160006A00A0936B00B0936C008091670090912F
:101170006800811B91099093680080936700892B18
:1011800021F410926F0081E042CF80E040CF12BA8C
:1011900018BA8BEF81BB8FEF87BB17BA83E084BB94
:1011A0009EEF95BB83BFABD8789482D781D7FDCF14
:0411B000F894FFCFE1
:0211B400FF5AE0
:00000001FF
